{
  "address": "0xfF931A63D9f1c51c2Fb4cef8c5A97E3E79903FF6",
  "abi": [
    {
      "inputs": [],
      "stateMutability": "nonpayable",
      "type": "constructor"
    },
    {
      "anonymous": false,
      "inputs": [
        {
          "indexed": true,
          "internalType": "address",
          "name": "owner",
          "type": "address"
        },
        {
          "indexed": true,
          "internalType": "address",
          "name": "spender",
          "type": "address"
        },
        {
          "indexed": false,
          "internalType": "uint256",
          "name": "value",
          "type": "uint256"
        }
      ],
      "name": "Approval",
      "type": "event"
    },
    {
      "anonymous": false,
      "inputs": [
        {
          "indexed": true,
          "internalType": "address",
          "name": "from",
          "type": "address"
        },
        {
          "indexed": true,
          "internalType": "address",
          "name": "to",
          "type": "address"
        },
        {
          "indexed": false,
          "internalType": "uint256",
          "name": "value",
          "type": "uint256"
        }
      ],
      "name": "Transfer",
      "type": "event"
    },
    {
      "inputs": [
        {
          "internalType": "address",
          "name": "",
          "type": "address"
        },
        {
          "internalType": "address",
          "name": "",
          "type": "address"
        }
      ],
      "name": "allowance",
      "outputs": [
        {
          "internalType": "uint256",
          "name": "",
          "type": "uint256"
        }
      ],
      "stateMutability": "view",
      "type": "function"
    },
    {
      "inputs": [
        {
          "internalType": "address",
          "name": "_spender",
          "type": "address"
        },
        {
          "internalType": "uint256",
          "name": "_value",
          "type": "uint256"
        }
      ],
      "name": "approve",
      "outputs": [
        {
          "internalType": "bool",
          "name": "",
          "type": "bool"
        }
      ],
      "stateMutability": "nonpayable",
      "type": "function"
    },
    {
      "inputs": [
        {
          "internalType": "address",
          "name": "",
          "type": "address"
        }
      ],
      "name": "balanceOf",
      "outputs": [
        {
          "internalType": "uint256",
          "name": "",
          "type": "uint256"
        }
      ],
      "stateMutability": "view",
      "type": "function"
    },
    {
      "inputs": [
        {
          "internalType": "address",
          "name": "account",
          "type": "address"
        },
        {
          "internalType": "uint256",
          "name": "amount",
          "type": "uint256"
        }
      ],
      "name": "claim",
      "outputs": [
        {
          "internalType": "bool",
          "name": "",
          "type": "bool"
        }
      ],
      "stateMutability": "nonpayable",
      "type": "function"
    },
    {
      "inputs": [],
      "name": "decimals",
      "outputs": [
        {
          "internalType": "uint8",
          "name": "",
          "type": "uint8"
        }
      ],
      "stateMutability": "view",
      "type": "function"
    },
    {
      "inputs": [
        {
          "internalType": "address",
          "name": "_recipient",
          "type": "address"
        }
      ],
      "name": "initialMint",
      "outputs": [],
      "stateMutability": "nonpayable",
      "type": "function"
    },
    {
      "inputs": [],
      "name": "initialMinted",
      "outputs": [
        {
          "internalType": "bool",
          "name": "",
          "type": "bool"
        }
      ],
      "stateMutability": "view",
      "type": "function"
    },
    {
      "inputs": [],
      "name": "merkleClaim",
      "outputs": [
        {
          "internalType": "address",
          "name": "",
          "type": "address"
        }
      ],
      "stateMutability": "view",
      "type": "function"
    },
    {
      "inputs": [
        {
          "internalType": "address",
          "name": "account",
          "type": "address"
        },
        {
          "internalType": "uint256",
          "name": "amount",
          "type": "uint256"
        }
      ],
      "name": "mint",
      "outputs": [
        {
          "internalType": "bool",
          "name": "",
          "type": "bool"
        }
      ],
      "stateMutability": "nonpayable",
      "type": "function"
    },
    {
      "inputs": [],
      "name": "minter",
      "outputs": [
        {
          "internalType": "address",
          "name": "",
          "type": "address"
        }
      ],
      "stateMutability": "view",
      "type": "function"
    },
    {
      "inputs": [],
      "name": "name",
      "outputs": [
        {
          "internalType": "string",
          "name": "",
          "type": "string"
        }
      ],
      "stateMutability": "view",
      "type": "function"
    },
    {
      "inputs": [],
      "name": "redemptionReceiver",
      "outputs": [
        {
          "internalType": "address",
          "name": "",
          "type": "address"
        }
      ],
      "stateMutability": "view",
      "type": "function"
    },
    {
      "inputs": [
        {
          "internalType": "address",
          "name": "_merkleClaim",
          "type": "address"
        }
      ],
      "name": "setMerkleClaim",
      "outputs": [],
      "stateMutability": "nonpayable",
      "type": "function"
    },
    {
      "inputs": [
        {
          "internalType": "address",
          "name": "_minter",
          "type": "address"
        }
      ],
      "name": "setMinter",
      "outputs": [],
      "stateMutability": "nonpayable",
      "type": "function"
    },
    {
      "inputs": [
        {
          "internalType": "address",
          "name": "_receiver",
          "type": "address"
        }
      ],
      "name": "setRedemptionReceiver",
      "outputs": [],
      "stateMutability": "nonpayable",
      "type": "function"
    },
    {
      "inputs": [],
      "name": "symbol",
      "outputs": [
        {
          "internalType": "string",
          "name": "",
          "type": "string"
        }
      ],
      "stateMutability": "view",
      "type": "function"
    },
    {
      "inputs": [],
      "name": "totalSupply",
      "outputs": [
        {
          "internalType": "uint256",
          "name": "",
          "type": "uint256"
        }
      ],
      "stateMutability": "view",
      "type": "function"
    },
    {
      "inputs": [
        {
          "internalType": "address",
          "name": "_to",
          "type": "address"
        },
        {
          "internalType": "uint256",
          "name": "_value",
          "type": "uint256"
        }
      ],
      "name": "transfer",
      "outputs": [
        {
          "internalType": "bool",
          "name": "",
          "type": "bool"
        }
      ],
      "stateMutability": "nonpayable",
      "type": "function"
    },
    {
      "inputs": [
        {
          "internalType": "address",
          "name": "_from",
          "type": "address"
        },
        {
          "internalType": "address",
          "name": "_to",
          "type": "address"
        },
        {
          "internalType": "uint256",
          "name": "_value",
          "type": "uint256"
        }
      ],
      "name": "transferFrom",
      "outputs": [
        {
          "internalType": "bool",
          "name": "",
          "type": "bool"
        }
      ],
      "stateMutability": "nonpayable",
      "type": "function"
    }
  ],
  "transactionHash": "0xd1625f4cce066cee00917812ae7c6ec12ff87a25fac1a8ee7ec5c8fc1faac80b",
  "args": [],
  "numDeployments": 1,
  "solcInputHash": "3a0d10a91e79b983e51e7e81fb1a5234",
  "bytecode": "0x60806040526000805534801561001457600080fd5b5060038054610100600160a81b0319163361010081029190911790915561003c906000610042565b506100d9565b60008160008082825461005591906100b3565b90915550506001600160a01b0383166000818152600160209081526040808320805487019055518581527fddf252ad1be2c89b69c2b068fc378daa952ba7f163c4a11628f55a4df523b3ef910160405180910390a350600192915050565b600082198211156100d457634e487b7160e01b600052601160045260246000fd5b500190565b610831806100e86000396000f3fe608060405234801561001057600080fd5b50600436106101215760003560e01c806395d89b41116100ad578063d9b2e35511610071578063d9b2e355146102b0578063dd62ed3e146102c3578063e752c44a146102ee578063ec676a2514610301578063fca3b5aa1461031457600080fd5b806395d89b4114610245578063a9059cbb14610268578063aad3ec961461027b578063c268f9ba1461028e578063ca1c4de9146102a357600080fd5b806323b872dd116100f457806323b872dd146101d2578063313ce567146101e557806340c10f19146101ff5780635e05fe501461021257806370a082311461022557600080fd5b806306fdde03146101265780630754617214610168578063095ea7b31461019857806318160ddd146101bb575b600080fd5b6101526040518060400160405280600d81526020016c457870616e6446696e616e636560981b81525081565b60405161015f9190610691565b60405180910390f35b6003546101809061010090046001600160a01b031681565b6040516001600160a01b03909116815260200161015f565b6101ab6101a6366004610702565b610327565b604051901515815260200161015f565b6101c460005481565b60405190815260200161015f565b6101ab6101e036600461072c565b610393565b6101ed601281565b60405160ff909116815260200161015f565b6101ab61020d366004610702565b61040d565b600454610180906001600160a01b031681565b6101c4610233366004610768565b60016020526000908152604090205481565b610152604051806040016040528060048152602001631156141160e21b81525081565b6101ab610276366004610702565b610440565b6101ab610289366004610702565b610454565b6102a161029c366004610768565b610483565b005b6003546101ab9060ff1681565b6102a16102be366004610768565b6104d5565b6101c46102d1366004610783565b600260209081526000928352604080842090915290825290205481565b600554610180906001600160a01b031681565b6102a161030f366004610768565b610513565b6102a1610322366004610768565b610551565b3360008181526002602090815260408083206001600160a01b038716808552925280832085905551919290917f8c5be1e5ebec7d5bd14f71427d1e84f3dd0314c0f7b2291e5b200ac8c7c3b925906103829086815260200190565b60405180910390a350600192915050565b6001600160a01b038316600090815260026020908152604080832033845290915281205460001981146103f9576001600160a01b0385166000908152600260209081526040808320338452909152812080548592906103f39084906107cc565b90915550505b610404858585610595565b95945050505050565b60035460009061010090046001600160a01b0316331461042c57600080fd5b610436838361062c565b5060019392505050565b600061044d338484610595565b9392505050565b6004546000906001600160a01b031633148061047a57506005546001600160a01b031633145b61042c57600080fd5b60035461010090046001600160a01b0316331480156104a5575060035460ff16155b6104ae57600080fd5b6003805460ff191660011790556104d1816b014adf4b7320334b9000000061062c565b5050565b60035461010090046001600160a01b031633146104f157600080fd5b600480546001600160a01b0319166001600160a01b0392909216919091179055565b60035461010090046001600160a01b0316331461052f57600080fd5b600580546001600160a01b0319166001600160a01b0392909216919091179055565b60035461010090046001600160a01b0316331461056d57600080fd5b600380546001600160a01b0390921661010002610100600160a81b0319909216919091179055565b6001600160a01b0383166000908152600160205260408120805483919083906105bf9084906107cc565b90915550506001600160a01b03808416600081815260016020526040908190208054860190555190918616907fddf252ad1be2c89b69c2b068fc378daa952ba7f163c4a11628f55a4df523b3ef9061061a9086815260200190565b60405180910390a35060019392505050565b60008160008082825461063f91906107e3565b90915550506001600160a01b0383166000818152600160209081526040808320805487019055518581527fddf252ad1be2c89b69c2b068fc378daa952ba7f163c4a11628f55a4df523b3ef9101610382565b600060208083528351808285015260005b818110156106be578581018301518582016040015282016106a2565b818111156106d0576000604083870101525b50601f01601f1916929092016040019392505050565b80356001600160a01b03811681146106fd57600080fd5b919050565b6000806040838503121561071557600080fd5b61071e836106e6565b946020939093013593505050565b60008060006060848603121561074157600080fd5b61074a846106e6565b9250610758602085016106e6565b9150604084013590509250925092565b60006020828403121561077a57600080fd5b61044d826106e6565b6000806040838503121561079657600080fd5b61079f836106e6565b91506107ad602084016106e6565b90509250929050565b634e487b7160e01b600052601160045260246000fd5b6000828210156107de576107de6107b6565b500390565b600082198211156107f6576107f66107b6565b50019056fea2646970667358221220aab6dd0c1633ea11daab3c3180b8e01036d8cbd725749e75858ef33ff0b36c2964736f6c634300080d0033",
  "devdoc": {
    "kind": "dev",
    "methods": {},
    "version": 1
  },
  "userdoc": {
    "kind": "user",
    "methods": {},
    "version": 1
  },
  "storageLayout": {
    "storage": [
      {
        "astId": 1343,
        "contract": "contracts/Flow.sol:Flow",
        "label": "totalSupply",
        "offset": 0,
        "slot": "0",
        "type": "t_uint256"
      },
      {
        "astId": 1347,
        "contract": "contracts/Flow.sol:Flow",
        "label": "balanceOf",
        "offset": 0,
        "slot": "1",
        "type": "t_mapping(t_address,t_uint256)"
      },
      {
        "astId": 1353,
        "contract": "contracts/Flow.sol:Flow",
        "label": "allowance",
        "offset": 0,
        "slot": "2",
        "type": "t_mapping(t_address,t_mapping(t_address,t_uint256))"
      },
      {
        "astId": 1355,
        "contract": "contracts/Flow.sol:Flow",
        "label": "initialMinted",
        "offset": 0,
        "slot": "3",
        "type": "t_bool"
      },
      {
        "astId": 1357,
        "contract": "contracts/Flow.sol:Flow",
        "label": "minter",
        "offset": 1,
        "slot": "3",
        "type": "t_address"
      },
      {
        "astId": 1359,
        "contract": "contracts/Flow.sol:Flow",
        "label": "redemptionReceiver",
        "offset": 0,
        "slot": "4",
        "type": "t_address"
      },
      {
        "astId": 1361,
        "contract": "contracts/Flow.sol:Flow",
        "label": "merkleClaim",
        "offset": 0,
        "slot": "5",
        "type": "t_address"
      }
    ],
    "types": {
      "t_address": {
        "encoding": "inplace",
        "label": "address",
        "numberOfBytes": "20"
      },
      "t_bool": {
        "encoding": "inplace",
        "label": "bool",
        "numberOfBytes": "1"
      },
      "t_mapping(t_address,t_mapping(t_address,t_uint256))": {
        "encoding": "mapping",
        "key": "t_address",
        "label": "mapping(address => mapping(address => uint256))",
        "numberOfBytes": "32",
        "value": "t_mapping(t_address,t_uint256)"
      },
      "t_mapping(t_address,t_uint256)": {
        "encoding": "mapping",
        "key": "t_address",
        "label": "mapping(address => uint256)",
        "numberOfBytes": "32",
        "value": "t_uint256"
      },
      "t_uint256": {
        "encoding": "inplace",
        "label": "uint256",
        "numberOfBytes": "32"
      }
    }
  }
}