{
  "address": "0xEAb2af9002c4A0353837851Fc16Cb79681d0DFdB",
  "abi": [
    {
      "inputs": [],
      "stateMutability": "nonpayable",
      "type": "constructor"
    },
    {
      "anonymous": false,
      "inputs": [
        {
          "indexed": true,
          "internalType": "address",
          "name": "token0",
          "type": "address"
        },
        {
          "indexed": true,
          "internalType": "address",
          "name": "token1",
          "type": "address"
        },
        {
          "indexed": false,
          "internalType": "bool",
          "name": "stable",
          "type": "bool"
        },
        {
          "indexed": false,
          "internalType": "address",
          "name": "pair",
          "type": "address"
        },
        {
          "indexed": false,
          "internalType": "uint256",
          "name": "",
          "type": "uint256"
        }
      ],
      "name": "PairCreated",
      "type": "event"
    },
    {
      "inputs": [],
      "name": "MAX_FEE",
      "outputs": [
        {
          "internalType": "uint256",
          "name": "",
          "type": "uint256"
        }
      ],
      "stateMutability": "view",
      "type": "function"
    },
    {
      "inputs": [],
      "name": "acceptFeeManager",
      "outputs": [],
      "stateMutability": "nonpayable",
      "type": "function"
    },
    {
      "inputs": [],
      "name": "acceptPauser",
      "outputs": [],
      "stateMutability": "nonpayable",
      "type": "function"
    },
    {
      "inputs": [],
      "name": "acceptTank",
      "outputs": [],
      "stateMutability": "nonpayable",
      "type": "function"
    },
    {
      "inputs": [
        {
          "internalType": "uint256",
          "name": "",
          "type": "uint256"
        }
      ],
      "name": "allPairs",
      "outputs": [
        {
          "internalType": "address",
          "name": "",
          "type": "address"
        }
      ],
      "stateMutability": "view",
      "type": "function"
    },
    {
      "inputs": [],
      "name": "allPairsLength",
      "outputs": [
        {
          "internalType": "uint256",
          "name": "",
          "type": "uint256"
        }
      ],
      "stateMutability": "view",
      "type": "function"
    },
    {
      "inputs": [
        {
          "internalType": "address",
          "name": "tokenA",
          "type": "address"
        },
        {
          "internalType": "address",
          "name": "tokenB",
          "type": "address"
        },
        {
          "internalType": "bool",
          "name": "stable",
          "type": "bool"
        }
      ],
      "name": "createPair",
      "outputs": [
        {
          "internalType": "address",
          "name": "pair",
          "type": "address"
        }
      ],
      "stateMutability": "nonpayable",
      "type": "function"
    },
    {
      "inputs": [],
      "name": "deployer",
      "outputs": [
        {
          "internalType": "address",
          "name": "",
          "type": "address"
        }
      ],
      "stateMutability": "view",
      "type": "function"
    },
    {
      "inputs": [],
      "name": "feeManager",
      "outputs": [
        {
          "internalType": "address",
          "name": "",
          "type": "address"
        }
      ],
      "stateMutability": "view",
      "type": "function"
    },
    {
      "inputs": [
        {
          "internalType": "bool",
          "name": "_stable",
          "type": "bool"
        }
      ],
      "name": "getFee",
      "outputs": [
        {
          "internalType": "uint256",
          "name": "",
          "type": "uint256"
        }
      ],
      "stateMutability": "view",
      "type": "function"
    },
    {
      "inputs": [],
      "name": "getInitializable",
      "outputs": [
        {
          "internalType": "address",
          "name": "",
          "type": "address"
        },
        {
          "internalType": "address",
          "name": "",
          "type": "address"
        },
        {
          "internalType": "bool",
          "name": "",
          "type": "bool"
        }
      ],
      "stateMutability": "view",
      "type": "function"
    },
    {
      "inputs": [
        {
          "internalType": "address",
          "name": "",
          "type": "address"
        },
        {
          "internalType": "address",
          "name": "",
          "type": "address"
        },
        {
          "internalType": "bool",
          "name": "",
          "type": "bool"
        }
      ],
      "name": "getPair",
      "outputs": [
        {
          "internalType": "address",
          "name": "",
          "type": "address"
        }
      ],
      "stateMutability": "view",
      "type": "function"
    },
    {
      "inputs": [],
      "name": "getVoter",
      "outputs": [
        {
          "internalType": "address",
          "name": "",
          "type": "address"
        }
      ],
      "stateMutability": "view",
      "type": "function"
    },
    {
      "inputs": [
        {
          "internalType": "address",
          "name": "",
          "type": "address"
        }
      ],
      "name": "isPair",
      "outputs": [
        {
          "internalType": "bool",
          "name": "",
          "type": "bool"
        }
      ],
      "stateMutability": "view",
      "type": "function"
    },
    {
      "inputs": [],
      "name": "isPaused",
      "outputs": [
        {
          "internalType": "bool",
          "name": "",
          "type": "bool"
        }
      ],
      "stateMutability": "view",
      "type": "function"
    },
    {
      "inputs": [],
      "name": "pairCodeHash",
      "outputs": [
        {
          "internalType": "bytes32",
          "name": "",
          "type": "bytes32"
        }
      ],
      "stateMutability": "pure",
      "type": "function"
    },
    {
      "inputs": [],
      "name": "pauser",
      "outputs": [
        {
          "internalType": "address",
          "name": "",
          "type": "address"
        }
      ],
      "stateMutability": "view",
      "type": "function"
    },
    {
      "inputs": [],
      "name": "pendingFeeManager",
      "outputs": [
        {
          "internalType": "address",
          "name": "",
          "type": "address"
        }
      ],
      "stateMutability": "view",
      "type": "function"
    },
    {
      "inputs": [],
      "name": "pendingPauser",
      "outputs": [
        {
          "internalType": "address",
          "name": "",
          "type": "address"
        }
      ],
      "stateMutability": "view",
      "type": "function"
    },
    {
      "inputs": [],
      "name": "pendingTank",
      "outputs": [
        {
          "internalType": "address",
          "name": "",
          "type": "address"
        }
      ],
      "stateMutability": "view",
      "type": "function"
    },
    {
      "inputs": [
        {
          "internalType": "bool",
          "name": "_stable",
          "type": "bool"
        },
        {
          "internalType": "uint256",
          "name": "_fee",
          "type": "uint256"
        }
      ],
      "name": "setFee",
      "outputs": [],
      "stateMutability": "nonpayable",
      "type": "function"
    },
    {
      "inputs": [
        {
          "internalType": "address",
          "name": "_feeManager",
          "type": "address"
        }
      ],
      "name": "setFeeManager",
      "outputs": [],
      "stateMutability": "nonpayable",
      "type": "function"
    },
    {
      "inputs": [
        {
          "internalType": "bool",
          "name": "_state",
          "type": "bool"
        }
      ],
      "name": "setPause",
      "outputs": [],
      "stateMutability": "nonpayable",
      "type": "function"
    },
    {
      "inputs": [
        {
          "internalType": "address",
          "name": "_pauser",
          "type": "address"
        }
      ],
      "name": "setPauser",
      "outputs": [],
      "stateMutability": "nonpayable",
      "type": "function"
    },
    {
      "inputs": [
        {
          "internalType": "address",
          "name": "_tank",
          "type": "address"
        }
      ],
      "name": "setTank",
      "outputs": [],
      "stateMutability": "nonpayable",
      "type": "function"
    },
    {
      "inputs": [
        {
          "internalType": "address",
          "name": "_team",
          "type": "address"
        }
      ],
      "name": "setTeam",
      "outputs": [],
      "stateMutability": "nonpayable",
      "type": "function"
    },
    {
      "inputs": [
        {
          "internalType": "address",
          "name": "_voter",
          "type": "address"
        }
      ],
      "name": "setVoter",
      "outputs": [],
      "stateMutability": "nonpayable",
      "type": "function"
    },
    {
      "inputs": [],
      "name": "stableFee",
      "outputs": [
        {
          "internalType": "uint256",
          "name": "",
          "type": "uint256"
        }
      ],
      "stateMutability": "view",
      "type": "function"
    },
    {
      "inputs": [],
      "name": "tank",
      "outputs": [
        {
          "internalType": "address",
          "name": "",
          "type": "address"
        }
      ],
      "stateMutability": "view",
      "type": "function"
    },
    {
      "inputs": [],
      "name": "team",
      "outputs": [
        {
          "internalType": "address",
          "name": "",
          "type": "address"
        }
      ],
      "stateMutability": "view",
      "type": "function"
    },
    {
      "inputs": [],
      "name": "volatileFee",
      "outputs": [
        {
          "internalType": "uint256",
          "name": "",
          "type": "uint256"
        }
      ],
      "stateMutability": "view",
      "type": "function"
    },
    {
      "inputs": [],
      "name": "voter",
      "outputs": [
        {
          "internalType": "address",
          "name": "",
          "type": "address"
        }
      ],
      "stateMutability": "view",
      "type": "function"
    }
  ],
  "transactionHash": "0x784e01709a46f9e601e0f11ce38dce509a0f476f2dbd18fb794ac34b5e423bc1",
  "args": [],
  "numDeployments": 1,
  "solcInputHash": "3a0d10a91e79b983e51e7e81fb1a5234",
  "bytecode": "0x608060405234801561001057600080fd5b50600080546001600160a81b03191633610100810260ff1916919091178255600480546001600160a01b031990811683179091556003600281905560199055600a8054909116909117905561561690819061006b90396000f3fe60806040523480156200001157600080fd5b5060043610620002195760003560e01c80638a4fa0d21162000125578063bedb86fb11620000af578063e1f76b44116200007a578063e1f76b441462000486578063e5e31b13146200049d578063eb13c4cf14620004c3578063f94c53c714620004fc57600080fd5b8063bedb86fb146200043d578063d001e1ea1462000454578063d0fb0203146200045e578063d5f39488146200047257600080fd5b8063ad8c3cd211620000f0578063ad8c3cd214620003ea578063b187bd261462000401578063b7f01bfc1462000420578063bc063e1a146200043457600080fd5b80638a4fa0d2146200039f5780639a7165e414620003b35780639aab924814620003c75780639fd0506d14620003d157600080fd5b80634bc2a65711620001a7578063574f2ba31162000172578063574f2ba3146200032e5780636801cc30146200033757806382dfdce4146200037457806385f2aef2146200038b57600080fd5b80634bc2a65714620002e25780635084ed0314620002f9578063512b45ea14620003035780635600bbcf146200031a57600080fd5b80632d88af4a11620001e85780632d88af4a146200028757806340bbd775146200029e57806346c96aac14620002b7578063472d35b914620002cb57600080fd5b8063095cf5c6146200021e578063167a6f9014620002375780631e3dd18b14620002415780632b37f53c1462000275575b600080fd5b620002356200022f36600462000cfe565b62000506565b005b620002356200059f565b620002586200025236600462000d23565b620005e2565b6040516001600160a01b0390911681526020015b60405180910390f35b6006546001600160a01b031662000258565b620002356200029836600462000cfe565b6200060d565b620002a860025481565b6040519081526020016200026c565b60065462000258906001600160a01b031681565b62000235620002dc36600462000cfe565b6200064c565b62000235620002f336600462000cfe565b620006bc565b620002a860035481565b620002a86200031436600462000d4e565b62000751565b60085462000258906001600160a01b031681565b600c54620002a8565b620002586200034836600462000d6c565b600b6020908152600093845260408085208252928452828420905282529020546001600160a01b031681565b620002586200038536600462000d6c565b6200076c565b60075462000258906001600160a01b031681565b60055462000258906001600160a01b031681565b60015462000258906001600160a01b031681565b620002a862000a57565b600054620002589061010090046001600160a01b031681565b62000235620003fb36600462000cfe565b62000a8b565b6000546200040f9060ff1681565b60405190151581526020016200026c565b60095462000258906001600160a01b031681565b620002a8603281565b620002356200044e36600462000d4e565b62000ac5565b6200023562000af5565b60045462000258906001600160a01b031681565b600a5462000258906001600160a01b031681565b620002356200049736600462000db6565b62000b68565b6200040f620004ae36600462000cfe565b600d6020526000908152604090205460ff1681565b600e54600f54604080516001600160a01b0393841681529282166020840152600160a01b90910460ff161515908201526060016200026c565b6200023562000c53565b600a546001600160a01b031633146200051e57600080fd5b6007546001600160a01b0316156200057d5760405162461bcd60e51b815260206004820152601e60248201527f546865207465616d2068617320616c7265616479206265656e207365742e000060448201526064015b60405180910390fd5b600780546001600160a01b0319166001600160a01b0392909216919091179055565b6001546001600160a01b03163314620005b757600080fd5b600154600080546001600160a01b0390921661010002610100600160a81b0319909216919091179055565b600c8181548110620005f357600080fd5b6000918252602090912001546001600160a01b0316905081565b60005461010090046001600160a01b031633146200062a57600080fd5b600180546001600160a01b0319166001600160a01b0392909216919091179055565b6004546001600160a01b031633146200069a5760405162461bcd60e51b815260206004820152600f60248201526e3737ba103332b29036b0b730b3b2b960891b604482015260640162000574565b600580546001600160a01b0319166001600160a01b0392909216919091179055565b600a546001600160a01b03163314620006d457600080fd5b6006546001600160a01b0316156200072f5760405162461bcd60e51b815260206004820152601f60248201527f54686520766f7465722068617320616c7265616479206265656e207365742e00604482015260640162000574565b600680546001600160a01b0319166001600160a01b0392909216919091179055565b600081620007625760035462000766565b6002545b92915050565b6000826001600160a01b0316846001600160a01b031603620007b65760405162461bcd60e51b8152602060048201526002602482015261494160f01b604482015260640162000574565b600080846001600160a01b0316866001600160a01b031610620007db578486620007de565b85855b90925090506001600160a01b038216620008205760405162461bcd60e51b81526020600482015260026024820152615a4160f01b604482015260640162000574565b6001600160a01b038281166000908152600b602090815260408083208585168452825280832088151584529091529020541615620008865760405162461bcd60e51b8152602060048201526002602482015261504560f01b604482015260640162000574565b6040516bffffffffffffffffffffffff19606084811b8216602084015283901b16603482015284151560f81b604882015260009060490160408051601f19818403018152908290528051602090910120600f80546001600160a01b038087166001600160a01b03198b1515600160a01b0281166001600160a81b03199094169390931717909255600e805492881692909116919091179055915081906200092d9062000cd3565b8190604051809103906000f59050801580156200094e573d6000803e3d6000fd5b506001600160a01b038481166000818152600b602081815260408084208987168086529083528185208d15158087529084528286208054988a166001600160a01b0319998a168117909155828752948452828620878752845282862081875284528286208054891686179055600c8054600181810183557fdf6966c971051c3d54ec59162606531493a51404a002842f56009d7e5cf4a8c79091018054909a168717909955858752600d855295839020805460ff1916909817909755935481519687529186019290925290840152929650907fc4805696c66d7cf352fc1d6bb633ad5ee82f6cb577c453024b6e0eb8306c6fc99060600160405180910390a35050509392505050565b60006040518060200162000a6b9062000cd3565b6020820181038252601f19601f8201166040525080519060200120905090565b600a546001600160a01b0316331462000aa357600080fd5b600880546001600160a01b0319166001600160a01b0392909216919091179055565b60005461010090046001600160a01b0316331462000ae257600080fd5b6000805460ff1916911515919091179055565b6007546001600160a01b0316331462000b445760405162461bcd60e51b815260206004820152601060248201526f6e6f742070656e64696e67207465616d60801b604482015260640162000574565b600854600980546001600160a01b0319166001600160a01b03909216919091179055565b6004546001600160a01b0316331462000bb65760405162461bcd60e51b815260206004820152600f60248201526e3737ba103332b29036b0b730b3b2b960891b604482015260640162000574565b603281111562000bf85760405162461bcd60e51b815260206004820152600c60248201526b0cccaca40e8dede40d0d2ced60a31b604482015260640162000574565b8060000362000c405760405162461bcd60e51b8152602060048201526013602482015272666565206d757374206265206e6f6e7a65726f60681b604482015260640162000574565b811562000c4d5760025550565b60035550565b6005546001600160a01b0316331462000caf5760405162461bcd60e51b815260206004820152601760248201527f6e6f742070656e64696e6720666565206d616e61676572000000000000000000604482015260640162000574565b600554600480546001600160a01b0319166001600160a01b03909216919091179055565b6147fd8062000de483390190565b80356001600160a01b038116811462000cf957600080fd5b919050565b60006020828403121562000d1157600080fd5b62000d1c8262000ce1565b9392505050565b60006020828403121562000d3657600080fd5b5035919050565b8035801515811462000cf957600080fd5b60006020828403121562000d6157600080fd5b62000d1c8262000d3d565b60008060006060848603121562000d8257600080fd5b62000d8d8462000ce1565b925062000d9d6020850162000ce1565b915062000dad6040850162000d3d565b90509250925092565b6000806040838503121562000dca57600080fd5b62000dd58362000d3d565b94602093909301359350505056fe61016060405260006002556000600d556000600e5560016013553480156200002657600080fd5b50336001600160a01b0316610100816001600160a01b0316815250506000806000336001600160a01b031663eb13c4cf6040518163ffffffff1660e01b8152600401606060405180830381865afa15801562000086573d6000803e3d6000fd5b505050506040513d601f19601f82011682018060405250810190620000ac9190620007c8565b8015156080526001600160a01b0380831660c052831660a052604051929550909350915083908390620000df90620006f7565b6001600160a01b03928316815291166020820152604001604051809103906000f08015801562000113573d6000803e3d6000fd5b506001600160a01b031660e05280156200034557826001600160a01b03166395d89b416040518163ffffffff1660e01b8152600401600060405180830381865afa15801562000166573d6000803e3d6000fd5b505050506040513d6000823e601f3d908101601f1916820160405262000190919081019062000863565b826001600160a01b03166395d89b416040518163ffffffff1660e01b8152600401600060405180830381865afa158015620001cf573d6000803e3d6000fd5b505050506040513d6000823e601f3d908101601f19168201604052620001f9919081019062000863565b6040516020016200020c9291906200091b565b604051602081830303815290604052600090805190602001906200023292919062000705565b50826001600160a01b03166395d89b416040518163ffffffff1660e01b8152600401600060405180830381865afa15801562000272573d6000803e3d6000fd5b505050506040513d6000823e601f3d908101601f191682016040526200029c919081019062000863565b826001600160a01b03166395d89b416040518163ffffffff1660e01b8152600401600060405180830381865afa158015620002db573d6000803e3d6000fd5b505050506040513d6000823e601f3d908101601f1916820160405262000305919081019062000863565b6040516020016200031892919062000976565b604051602081830303815290604052600190805190602001906200033e92919062000705565b506200055e565b826001600160a01b03166395d89b416040518163ffffffff1660e01b8152600401600060405180830381865afa15801562000384573d6000803e3d6000fd5b505050506040513d6000823e601f3d908101601f19168201604052620003ae919081019062000863565b826001600160a01b03166395d89b416040518163ffffffff1660e01b8152600401600060405180830381865afa158015620003ed573d6000803e3d6000fd5b505050506040513d6000823e601f3d908101601f1916820160405262000417919081019062000863565b6040516020016200042a929190620009c7565b604051602081830303815290604052600090805190602001906200045092919062000705565b50826001600160a01b03166395d89b416040518163ffffffff1660e01b8152600401600060405180830381865afa15801562000490573d6000803e3d6000fd5b505050506040513d6000823e601f3d908101601f19168201604052620004ba919081019062000863565b826001600160a01b03166395d89b416040518163ffffffff1660e01b8152600401600060405180830381865afa158015620004f9573d6000803e3d6000fd5b505050506040513d6000823e601f3d908101601f1916820160405262000523919081019062000863565b6040516020016200053692919062000a24565b604051602081830303815290604052600190805190602001906200055c92919062000705565b505b826001600160a01b031663313ce5676040518163ffffffff1660e01b8152600401602060405180830381865afa1580156200059d573d6000803e3d6000fd5b505050506040513d601f19601f82011682018060405250810190620005c3919062000a46565b620005d090600a62000b87565b6101208181525050816001600160a01b031663313ce5676040518163ffffffff1660e01b8152600401602060405180830381865afa15801562000617573d6000803e3d6000fd5b505050506040513d601f19601f820116820180604052508101906200063d919062000a46565b6200064a90600a62000b87565b6101405250506040805160608101825242815260006020820181815292820181815260078054600181018255925291517fa66cc928b5edb82af9bd49922954155ab7b0942694bea4ce44661d9a8736c68860039092029182015591517fa66cc928b5edb82af9bd49922954155ab7b0942694bea4ce44661d9a8736c689830155517fa66cc928b5edb82af9bd49922954155ab7b0942694bea4ce44661d9a8736c68a909101555062000bd4565b610370806200448d83390190565b828054620007139062000b98565b90600052602060002090601f01602090048101928262000737576000855562000782565b82601f106200075257805160ff191683800117855562000782565b8280016001018555821562000782579182015b828111156200078257825182559160200191906001019062000765565b506200079092915062000794565b5090565b5b8082111562000790576000815560010162000795565b80516001600160a01b0381168114620007c357600080fd5b919050565b600080600060608486031215620007de57600080fd5b620007e984620007ab565b9250620007f960208501620007ab565b9150604084015180151581146200080f57600080fd5b809150509250925092565b634e487b7160e01b600052604160045260246000fd5b60005b838110156200084d57818101518382015260200162000833565b838111156200085d576000848401525b50505050565b6000602082840312156200087657600080fd5b81516001600160401b03808211156200088e57600080fd5b818401915084601f830112620008a357600080fd5b815181811115620008b857620008b86200081a565b604051601f8201601f19908116603f01168101908382118183101715620008e357620008e36200081a565b81604052828152876020848701011115620008fd57600080fd5b6200091083602083016020880162000830565b979650505050505050565b6e029ba30b13632ab189020a6a690169608d1b8152600083516200094781600f85016020880162000830565b602f60f81b600f9184019182015283516200096a81601084016020880162000830565b01601001949350505050565b6473414d4d2d60d81b8152600083516200099881600585016020880162000830565b602f60f81b6005918401918201528351620009bb81600684016020880162000830565b01600601949350505050565b7002b37b630ba34b632ab189020a6a690169607d1b815260008351620009f581601185016020880162000830565b602f60f81b601191840191820152835162000a1881601284016020880162000830565b01601201949350505050565b6476414d4d2d60d81b8152600083516200099881600585016020880162000830565b60006020828403121562000a5957600080fd5b815160ff8116811462000a6b57600080fd5b9392505050565b634e487b7160e01b600052601160045260246000fd5b600181815b8085111562000ac957816000190482111562000aad5762000aad62000a72565b8085161562000abb57918102915b93841c939080029062000a8d565b509250929050565b60008262000ae25750600162000b81565b8162000af15750600062000b81565b816001811462000b0a576002811462000b155762000b35565b600191505062000b81565b60ff84111562000b295762000b2962000a72565b50506001821b62000b81565b5060208310610133831016604e8410600b841016171562000b5a575081810a62000b81565b62000b66838362000a88565b806000190482111562000b7d5762000b7d62000a72565b0290505b92915050565b600062000a6b60ff84168362000ad1565b600181811c9082168062000bad57607f821691505b60208210810362000bce57634e487b7160e01b600052602260045260246000fd5b50919050565b60805160a05160c05160e05161010051610120516101405161373862000d55600039600081816104310152818161253701528181612821015281816128e301526129ee01526000818161040e015281816124f6015281816127e20152818161292501526129c80152600081816107b801528181610c0701528181610cd801526120660152600081816105f201528181611c7a0152818161235d015261242a0152600081816104bb0152818161064701528181610714015281816108f301528181610b9b0152818161150f015281816116fa01528181611b21015281816121c301526124090152600081816102f90152818161049301528181610622015281816108d201528181610b7a01528181611479015281816116d801528181611aff0152818161213b0152818161233c01528181612863015281816128aa0152818161298f0152612a320152600081816103970152818161046301528181610bcf01528181610ca001528181612035015281816124ce01526127ae01526137386000f3fe608060405234801561001057600080fd5b50600436106102745760003560e01c80637ecebe0011610151578063bda39cad116100c3578063d294f09311610087578063d294f09314610736578063d505accf1461073e578063dd62ed3e14610751578063ebeb31db1461077c578063f140a35a14610784578063fff6cae91461079757600080fd5b8063bda39cad146106eb578063bf944dbc146106f4578063c245febc146106fd578063c5700a0214610706578063d21220a71461070f57600080fd5b80639d63848a116101155780639d63848a146106145780639e8cc04b146106725780639f767c8814610685578063a1ac4d13146106a5578063a9059cbb146106c5578063bc25cf77146106d857600080fd5b80637ecebe001461057357806389afcb44146105935780638a7b8cf2146105bb57806395d89b41146105e55780639af1d35a146105ed57600080fd5b8063252c09d7116101ea5780634d5a9f8a116101ae5780634d5a9f8a146104f1578063517b3f82146105115780635881c475146105245780635a76f25e146105375780636a6278421461054057806370a082311461055357600080fd5b8063252c09d7146103cc578063313ce567146103df57806332c0defd146103f9578063392f37e914610402578063443cb4bc146104e857600080fd5b806313345fe11161023c57806313345fe11461033357806318160ddd146103535780631df8c7171461036a578063205aabf11461037257806322be3de11461039257806323b872dd146103b957600080fd5b8063022c0d9f1461027957806306fdde031461028e5780630902f1ac146102ac578063095ea7b3146102d15780630dfe1681146102f4575b600080fd5b61028c61028736600461319f565b61079f565b005b610296610eec565b6040516102a39190613263565b60405180910390f35b600854600954600a545b604080519384526020840192909252908201526060016102a3565b6102e46102df366004613296565b610f7a565b60405190151581526020016102a3565b61031b7f000000000000000000000000000000000000000000000000000000000000000081565b6040516001600160a01b0390911681526020016102a3565b6103466103413660046132c0565b610fe7565b6040516102a391906132f9565b61035c60025481565b6040519081526020016102a3565b6102b66111e3565b61035c61038036600461333d565b60106020526000908152604090205481565b6102e47f000000000000000000000000000000000000000000000000000000000000000081565b6102e46103c7366004613358565b611252565b6102b66103da366004613394565b61131b565b6103e7601281565b60405160ff90911681526020016102a3565b61035c600d5481565b600854600954604080517f000000000000000000000000000000000000000000000000000000000000000081527f000000000000000000000000000000000000000000000000000000000000000060208201529081019290925260608201527f0000000000000000000000000000000000000000000000000000000000000000151560808201526001600160a01b037f0000000000000000000000000000000000000000000000000000000000000000811660a08301527f00000000000000000000000000000000000000000000000000000000000000001660c082015260e0016102a3565b61035c60085481565b61035c6104ff36600461333d565b60116020526000908152604090205481565b61035c61051f366004613296565b61134e565b6103466105323660046133ad565b611436565b61035c60095481565b61035c61054e36600461333d565b611445565b61035c61056136600461333d565b60046020526000908152604090205481565b61035c61058136600461333d565b60066020526000908152604090205481565b6105a66105a136600461333d565b6116a6565b604080519283526020830191909152016102a3565b6105c36119c3565b60408051825181526020808401519082015291810151908201526060016102a3565b610296611a43565b61031b7f000000000000000000000000000000000000000000000000000000000000000081565b604080516001600160a01b037f0000000000000000000000000000000000000000000000000000000000000000811682527f0000000000000000000000000000000000000000000000000000000000000000166020820152016102a3565b61035c6106803660046133ad565b611a50565b61035c61069336600461333d565b600f6020526000908152604090205481565b61035c6106b336600461333d565b60126020526000908152604090205481565b6102e46106d3366004613296565b611abd565b61028c6106e636600461333d565b611ad3565b61035c600e5481565b61035c600b5481565b61035c600c5481565b61035c600a5481565b61031b7f000000000000000000000000000000000000000000000000000000000000000081565b6105a6611bf1565b61028c61074c3660046133e0565b611d18565b61035c61075f366004613453565b600360209081526000928352604080842090915290825290205481565b60075461035c565b61035c610792366004613486565b612020565b61028c61210e565b6013546001146107ae57600080fd5b60026013819055507f00000000000000000000000000000000000000000000000000000000000000006001600160a01b031663b187bd266040518163ffffffff1660e01b8152600401602060405180830381865afa158015610814573d6000803e3d6000fd5b505050506040513d601f19601f8201168201806040525081019061083891906134a9565b1561084257600080fd5b60008511806108515750600084115b6108885760405162461bcd60e51b8152602060048201526003602482015262494f4160e81b60448201526064015b60405180910390fd5b600854600954818710801561089c57508086105b6108cd5760405162461bcd60e51b8152602060048201526002602482015261125360f21b604482015260640161087f565b6000807f00000000000000000000000000000000000000000000000000000000000000007f00000000000000000000000000000000000000000000000000000000000000006001600160a01b03898116908316148015906109405750806001600160a01b0316896001600160a01b031614155b6109715760405162461bcd60e51b8152602060048201526002602482015261125560f21b604482015260640161087f565b8a1561098257610982828a8d612248565b891561099357610993818a8c612248565b8615610a0057604051639a7bff7960e01b81526001600160a01b038a1690639a7bff79906109cd9033908f908f908e908e906004016134cb565b600060405180830381600087803b1580156109e757600080fd5b505af11580156109fb573d6000803e3d6000fd5b505050505b6040516370a0823160e01b81523060048201526001600160a01b038316906370a0823190602401602060405180830381865afa158015610a44573d6000803e3d6000fd5b505050506040513d601f19601f82011682018060405250810190610a689190613517565b6040516370a0823160e01b81523060048201529094506001600160a01b038216906370a0823190602401602060405180830381865afa158015610aaf573d6000803e3d6000fd5b505050506040513d601f19601f82011682018060405250810190610ad39190613517565b9250505060008985610ae59190613546565b8311610af2576000610b06565b610afc8a86613546565b610b069084613546565b90506000610b148a86613546565b8311610b21576000610b35565b610b2b8a86613546565b610b359084613546565b90506000821180610b465750600081115b610b785760405162461bcd60e51b815260206004820152600360248201526249494160e81b604482015260640161087f565b7f00000000000000000000000000000000000000000000000000000000000000007f00000000000000000000000000000000000000000000000000000000000000008315610c8b57604051632895a2f560e11b81527f000000000000000000000000000000000000000000000000000000000000000015156004820152610c8b90612710906001600160a01b037f0000000000000000000000000000000000000000000000000000000000000000169063512b45ea90602401602060405180830381865afa158015610c4e573d6000803e3d6000fd5b505050506040513d601f19601f82011682018060405250810190610c729190613517565b610c7c908761355d565b610c869190613592565b612337565b8215610d5c57604051632895a2f560e11b81527f000000000000000000000000000000000000000000000000000000000000000015156004820152610d5c90612710906001600160a01b037f0000000000000000000000000000000000000000000000000000000000000000169063512b45ea90602401602060405180830381865afa158015610d1f573d6000803e3d6000fd5b505050506040513d601f19601f82011682018060405250810190610d439190613517565b610d4d908661355d565b610d579190613592565b612404565b6040516370a0823160e01b81523060048201526001600160a01b038316906370a0823190602401602060405180830381865afa158015610da0573d6000803e3d6000fd5b505050506040513d601f19601f82011682018060405250810190610dc49190613517565b6040516370a0823160e01b81523060048201529096506001600160a01b038216906370a0823190602401602060405180830381865afa158015610e0b573d6000803e3d6000fd5b505050506040513d601f19601f82011682018060405250810190610e2f9190613517565b9450610e3b88886124ca565b610e4587876124ca565b1015610e775760405162461bcd60e51b81526020600482015260016024820152604b60f81b604482015260640161087f565b5050610e8584848888612616565b60408051838152602081018390529081018c9052606081018b90526001600160a01b038a169033907fd78ad95fa46c994b6551d0da85fc275fe613ce37657fb8d5e3d130840159d8229060800160405180910390a350506001601355505050505050505050565b60008054610ef9906135b4565b80601f0160208091040260200160405190810160405280929190818152602001828054610f25906135b4565b8015610f725780601f10610f4757610100808354040283529160200191610f72565b820191906000526020600020905b815481529060010190602001808311610f5557829003601f168201915b505050505081565b3360008181526003602090815260408083206001600160a01b038716808552925280832085905551919290917f8c5be1e5ebec7d5bd14f71427d1e84f3dd0314c0f7b2291e5b200ac8c7c3b92590610fd59086815260200190565b60405180910390a35060015b92915050565b606060008367ffffffffffffffff811115611004576110046135ee565b60405190808252806020026020018201604052801561102d578160200160208202803683370190505b5060075490915060009061104390600190613546565b90506000611051858761355d565b61105b9083613546565b90506000805b838310156111d3576110738784613604565b915060006007848154811061108a5761108a61361c565b906000526020600020906003020160000154600784815481106110af576110af61361c565b9060005260206000209060030201600001546110cb9190613546565b9050600081600786815481106110e3576110e361361c565b906000526020600020906003020160010154600786815481106111085761110861361c565b9060005260206000209060030201600101546111249190613546565b61112e9190613592565b9050600082600787815481106111465761114661361c565b9060005260206000209060030201600201546007878154811061116b5761116b61361c565b9060005260206000209060030201600201546111879190613546565b6111919190613592565b905061119f8c8e84846127aa565b8885815181106111b1576111b161361c565b60209081029190910101525050506001016111cc8784613604565b9250611061565b509293505050505b949350505050565b600b54600c544260008080611201600854600954600a549192909190565b92509250925083811461124a57600061121a8286613546565b9050611226818561355d565b6112309088613604565b965061123c818461355d565b6112469087613604565b9550505b505050909192565b6001600160a01b03831660008181526003602090815260408083203380855292528220549192909190821480159061128c57506000198114155b1561130257600061129d8583613546565b6001600160a01b038881166000818152600360209081526040808320948916808452948252918290208590559051848152939450919290917f8c5be1e5ebec7d5bd14f71427d1e84f3dd0314c0f7b2291e5b200ac8c7c3b925910160405180910390a3505b61130d868686612a9f565b6001925050505b9392505050565b6007818154811061132b57600080fd5b600091825260209091206003909102018054600182015460029092015490925083565b6000806113596119c3565b90506000806113666111e3565b508451919350915042036113ce576007805461138490600290613546565b815481106113945761139461361c565b9060005260206000209060030201604051806060016040529081600082015481526020016001820154815260200160028201548152505092505b82516000906113dd9042613546565b90506000818560200151856113f29190613546565b6113fc9190613592565b90506000828660400151856114119190613546565b61141b9190613592565b9050611429888a84846127aa565b9998505050505050505050565b60606111db8484846001610fe7565b600060135460011461145657600080fd5b60026013556008546009546040516370a0823160e01b81523060048201526000907f00000000000000000000000000000000000000000000000000000000000000006001600160a01b0316906370a0823190602401602060405180830381865afa1580156114c8573d6000803e3d6000fd5b505050506040513d601f19601f820116820180604052508101906114ec9190613517565b6040516370a0823160e01b81523060048201529091506000906001600160a01b037f000000000000000000000000000000000000000000000000000000000000000016906370a0823190602401602060405180830381865afa158015611556573d6000803e3d6000fd5b505050506040513d601f19601f8201168201806040525081019061157a9190613517565b905060006115888584613546565b905060006115968584613546565b60025490915060008190036115d8576103e86115ba6115b5848661355d565b612b5f565b6115c49190613546565b97506115d360006103e8612c47565b61160d565b61160a876115e6838661355d565b6115f09190613592565b876115fb848661355d565b6116059190613592565b612cda565b97505b600088116116435760405162461bcd60e51b8152602060048201526003602482015262494c4d60e81b604482015260640161087f565b61164d8989612c47565b61165985858989612616565b604080518481526020810184905233917f4c209b5fc8ad50758f13e2e1088ba56a560dff690a1c6fef26394f4c03821c4f910160405180910390a250506001601355509395945050505050565b6000806013546001146116b857600080fd5b60026013556008546009546040516370a0823160e01b81523060048201527f0000000000000000000000000000000000000000000000000000000000000000907f0000000000000000000000000000000000000000000000000000000000000000906000906001600160a01b038416906370a0823190602401602060405180830381865afa15801561174e573d6000803e3d6000fd5b505050506040513d601f19601f820116820180604052508101906117729190613517565b6040516370a0823160e01b81523060048201529091506000906001600160a01b038416906370a0823190602401602060405180830381865afa1580156117bc573d6000803e3d6000fd5b505050506040513d601f19601f820116820180604052508101906117e09190613517565b306000908152600460205260409020546002549192509080611802858461355d565b61180c9190613592565b995080611819848461355d565b6118239190613592565b985060008a1180156118355750600089115b6118675760405162461bcd60e51b815260206004820152600360248201526224a62160e91b604482015260640161087f565b6118713083612cf0565b61187c868c8c612248565b611887858c8b612248565b6040516370a0823160e01b81523060048201526001600160a01b038716906370a0823190602401602060405180830381865afa1580156118cb573d6000803e3d6000fd5b505050506040513d601f19601f820116820180604052508101906118ef9190613517565b6040516370a0823160e01b81523060048201529094506001600160a01b038616906370a0823190602401602060405180830381865afa158015611936573d6000803e3d6000fd5b505050506040513d601f19601f8201168201806040525081019061195a9190613517565b925061196884848a8a612616565b604080518b8152602081018b90526001600160a01b038d169133917fdccd412f0b1252819cb1fd330b93224ca42612892bb3f4f789976e6d81936496910160405180910390a350505050505050506001601381905550915091565b6119e760405180606001604052806000815260200160008152602001600081525090565b600780546119f790600190613546565b81548110611a0757611a0761361c565b90600052602060002090600302016040518060600160405290816000820154815260200160018201548152602001600282015481525050905090565b60018054610ef9906135b4565b600080611a608585856001610fe7565b90506000805b8251811015611aa857828181518110611a8157611a8161361c565b602002602001015182611a949190613604565b915080611aa081613632565b915050611a66565b50611ab38482613592565b9695505050505050565b6000611aca338484612a9f565b50600192915050565b601354600114611ae257600080fd5b60026013556008546040516370a0823160e01b81523060048201527f0000000000000000000000000000000000000000000000000000000000000000917f000000000000000000000000000000000000000000000000000000000000000091611baf9184918691906001600160a01b038416906370a08231906024015b602060405180830381865afa158015611b7c573d6000803e3d6000fd5b505050506040513d601f19601f82011682018060405250810190611ba09190613517565b611baa9190613546565b612248565b6009546040516370a0823160e01b8152306004820152611be79183918691906001600160a01b038416906370a0823190602401611b5f565b5050600160135550565b600080611bfd33612d7b565b50503360009081526011602090815260408083205460129092529091205481151580611c295750600081115b15611d14573360008181526011602090815260408083208390556012909152808220919091555163299e7ae760e11b8152600481019190915260248101839052604481018290526001600160a01b037f0000000000000000000000000000000000000000000000000000000000000000169063533cf5ce90606401600060405180830381600087803b158015611cbe57600080fd5b505af1158015611cd2573d6000803e3d6000fd5b505060408051858152602081018590523393508392507f865ca08d59f5cb456e85cd2f7ef63664ea4f73327414e9d8152c4158b0e94645910160405180910390a35b9091565b42841015611d585760405162461bcd60e51b815260206004820152600d60248201526c14185a5c8e8811561412549151609a1b604482015260640161087f565b7f8b73c3c69bb8fe3d512ecc4cf759cc79239f7b179b0ffacaa9a75d522b39400f6000604051611d88919061364b565b60408051918290038220828201825260018352603160f81b6020938401528151928301939093528101919091527fc89efdaa54c0f20c7adf612882df0950f5a951637e0307cdcb4c672f298b8bc660608201524660808201523060a082015260c00160408051601f19818403018152918152815160209283012060058190556001600160a01b038a166000908152600690935290822080547f6e71edae12b1b97f4d1f60370fef10105fa2faae0126114a169c64845d6126c9918b918b918b919087611e5383613632565b909155506040805160208101969096526001600160a01b0394851690860152929091166060840152608083015260a082015260c0810187905260e00160405160208183030381529060405280519060200120604051602001611ecc92919061190160f01b81526002810192909252602282015260420190565b60408051601f198184030181528282528051602091820120600080855291840180845281905260ff88169284019290925260608301869052608083018590529092509060019060a0016020604051602081039080840390855afa158015611f37573d6000803e3d6000fd5b5050604051601f1901519150506001600160a01b03811615801590611f6d5750886001600160a01b0316816001600160a01b0316145b611fb95760405162461bcd60e51b815260206004820152601760248201527f506169723a20494e56414c49445f5349474e4154555245000000000000000000604482015260640161087f565b6001600160a01b038981166000818152600360209081526040808320948d16808452948252918290208b905590518a81527f8c5be1e5ebec7d5bd14f71427d1e84f3dd0314c0f7b2291e5b200ac8c7c3b925910160405180910390a3505050505050505050565b600854600954604051632895a2f560e11b81527f0000000000000000000000000000000000000000000000000000000000000000151560048201526000929190612710907f00000000000000000000000000000000000000000000000000000000000000006001600160a01b03169063512b45ea90602401602060405180830381865afa1580156120b5573d6000803e3d6000fd5b505050506040513d601f19601f820116820180604052508101906120d99190613517565b6120e3908761355d565b6120ed9190613592565b6120f79086613546565b9450612105858584846127aa565b95945050505050565b60135460011461211d57600080fd5b60026013556040516370a0823160e01b8152306004820152612241907f00000000000000000000000000000000000000000000000000000000000000006001600160a01b0316906370a0823190602401602060405180830381865afa15801561218a573d6000803e3d6000fd5b505050506040513d601f19601f820116820180604052508101906121ae9190613517565b6040516370a0823160e01b81523060048201527f00000000000000000000000000000000000000000000000000000000000000006001600160a01b0316906370a0823190602401602060405180830381865afa158015612212573d6000803e3d6000fd5b505050506040513d601f19601f820116820180604052508101906122369190613517565b600854600954612616565b6001601355565b6000836001600160a01b03163b1161225f57600080fd5b604080516001600160a01b038481166024830152604480830185905283518084039091018152606490920183526020820180516001600160e01b031663a9059cbb60e01b17905291516000928392908716916122bb91906136e6565b6000604051808303816000865af19150503d80600081146122f8576040519150601f19603f3d011682016040523d82523d6000602084013e6122fd565b606091505b509150915081801561232757508051158061232757508080602001905181019061232791906134a9565b61233057600080fd5b5050505050565b6123827f00000000000000000000000000000000000000000000000000000000000000007f000000000000000000000000000000000000000000000000000000000000000083612248565b60025460009061239a83670de0b6b3a764000061355d565b6123a49190613592565b905080156123c45780600d60008282546123be9190613604565b90915550505b604080518381526000602082015233917f112c256902bf554b6ed882d2936687aaeb4225e8cd5b51303c90ca6cf43a860291015b60405180910390a25050565b61244f7f00000000000000000000000000000000000000000000000000000000000000007f000000000000000000000000000000000000000000000000000000000000000083612248565b60025460009061246783670de0b6b3a764000061355d565b6124719190613592565b905080156124915780600e600082825461248b9190613604565b90915550505b60408051600081526020810184905233917f112c256902bf554b6ed882d2936687aaeb4225e8cd5b51303c90ca6cf43a860291016123f8565b60007f0000000000000000000000000000000000000000000000000000000000000000156126055760007f000000000000000000000000000000000000000000000000000000000000000061252785670de0b6b3a764000061355d565b6125319190613592565b905060007f000000000000000000000000000000000000000000000000000000000000000061256885670de0b6b3a764000061355d565b6125729190613592565b90506000670de0b6b3a7640000612589838561355d565b6125939190613592565b90506000670de0b6b3a76400006125aa848061355d565b6125b49190613592565b670de0b6b3a76400006125c7868061355d565b6125d19190613592565b6125db9190613604565b9050670de0b6b3a76400006125f0828461355d565b6125fa9190613592565b945050505050610fe1565b61260f828461355d565b9050610fe1565b600a5442906000906126289083613546565b905060008111801561263957508315155b801561264457508215155b1561268b57612653818561355d565b600b60008282546126649190613604565b909155506126749050818461355d565b600c60008282546126859190613604565b90915550505b60006126956119c3565b80519091506126a49084613546565b91506107088211156127595760408051606081018252848152600b5460208201908152600c549282019283526007805460018101825560009190915291517fa66cc928b5edb82af9bd49922954155ab7b0942694bea4ce44661d9a8736c688600390930292830155517fa66cc928b5edb82af9bd49922954155ab7b0942694bea4ce44661d9a8736c68982015590517fa66cc928b5edb82af9bd49922954155ab7b0942694bea4ce44661d9a8736c68a909101555b60088790556009869055600a83905560408051888152602081018890527fcf2aa50876cdfbb541206f89af0ee78d44a2abf8d328e37fa4917f982149848a910160405180910390a150505050505050565b60007f000000000000000000000000000000000000000000000000000000000000000015612a2d5760006127de84846124ca565b90507f000000000000000000000000000000000000000000000000000000000000000061281385670de0b6b3a764000061355d565b61281d9190613592565b93507f000000000000000000000000000000000000000000000000000000000000000061285284670de0b6b3a764000061355d565b61285c9190613592565b92506000807f00000000000000000000000000000000000000000000000000000000000000006001600160a01b0316876001600160a01b0316146128a15784866128a4565b85855b915091507f00000000000000000000000000000000000000000000000000000000000000006001600160a01b0316876001600160a01b031614612923577f000000000000000000000000000000000000000000000000000000000000000061291489670de0b6b3a764000061355d565b61291e9190613592565b612960565b7f000000000000000000000000000000000000000000000000000000000000000061295689670de0b6b3a764000061355d565b6129609190613592565b97506000612978612971848b613604565b8584612edb565b6129829083613546565b9050670de0b6b3a76400007f00000000000000000000000000000000000000000000000000000000000000006001600160a01b0316896001600160a01b0316146129ec577f0000000000000000000000000000000000000000000000000000000000000000612a0e565b7f00000000000000000000000000000000000000000000000000000000000000005b612a18908361355d565b612a229190613592565b9450505050506111db565b6000807f00000000000000000000000000000000000000000000000000000000000000006001600160a01b0316866001600160a01b031614612a70578385612a73565b84845b9092509050612a828783613604565b612a8c828961355d565b612a969190613592565b925050506111db565b612aa883612d7b565b612ab182612d7b565b6001600160a01b03831660009081526004602052604081208054839290612ad9908490613546565b90915550506001600160a01b03821660009081526004602052604081208054839290612b06908490613604565b92505081905550816001600160a01b0316836001600160a01b03167fddf252ad1be2c89b69c2b068fc378daa952ba7f163c4a11628f55a4df523b3ef83604051612b5291815260200190565b60405180910390a3505050565b600081600003612b7157506000919050565b60006001612b7e84612fea565b901c6001901b90506001818481612b9757612b9761357c565b048201901c90506001818481612baf57612baf61357c565b048201901c90506001818481612bc757612bc761357c565b048201901c90506001818481612bdf57612bdf61357c565b048201901c90506001818481612bf757612bf761357c565b048201901c90506001818481612c0f57612c0f61357c565b048201901c90506001818481612c2757612c2761357c565b048201901c905061131481828581612c4157612c4161357c565b04612cda565b612c5082612d7b565b8060026000828254612c629190613604565b90915550506001600160a01b03821660009081526004602052604081208054839290612c8f908490613604565b90915550506040518181526001600160a01b038316906000907fddf252ad1be2c89b69c2b068fc378daa952ba7f163c4a11628f55a4df523b3ef906020015b60405180910390a35050565b6000818310612ce95781611314565b5090919050565b612cf982612d7b565b8060026000828254612d0b9190613546565b90915550506001600160a01b03821660009081526004602052604081208054839290612d38908490613546565b90915550506040518181526000906001600160a01b038416907fddf252ad1be2c89b69c2b068fc378daa952ba7f163c4a11628f55a4df523b3ef90602001612cce565b6001600160a01b0381166000908152600460205260409020548015612ea9576001600160a01b0382166000908152600f60209081526040808320805460108085529285208054600d54600e54948190559490955282905593612ddd8584613546565b90506000612deb8584613546565b90508115612e46576000670de0b6b3a7640000612e08848a61355d565b612e129190613592565b6001600160a01b038a16600090815260116020526040812080549293508392909190612e3f908490613604565b9091555050505b8015612e9f576000670de0b6b3a7640000612e61838a61355d565b612e6b9190613592565b6001600160a01b038a16600090815260126020526040812080549293508392909190612e98908490613604565b9091555050505b5050505050505050565b600d546001600160a01b0383166000908152600f6020908152604080832093909355600e546010909152919020555050565b6000805b60ff811015612fe157826000612ef5878361307e565b905085811015612f45576000612f0b888761311b565b612f158389613546565b612f2790670de0b6b3a764000061355d565b612f319190613592565b9050612f3d8187613604565b955050612f87565b6000612f51888761311b565b612f5b8884613546565b612f6d90670de0b6b3a764000061355d565b612f779190613592565b9050612f838187613546565b9550505b81851115612fb0576001612f9b8387613546565b11612fab57849350505050611314565b612fcc565b6001612fbc8684613546565b11612fcc57849350505050611314565b50508080612fd990613632565b915050612edf565b50909392505050565b600080608083901c15612fff57608092831c92015b604083901c1561301157604092831c92015b602083901c1561302357602092831c92015b601083901c1561303557601092831c92015b600883901c1561304757600892831c92015b600483901c1561305957600492831c92015b600283901c1561306b57600292831c92015b600183901c15610fe15760010192915050565b6000670de0b6b3a764000082818581613097828061355d565b6130a19190613592565b6130ab919061355d565b6130b59190613592565b6130bf919061355d565b6130c99190613592565b670de0b6b3a76400008084816130df828061355d565b6130e99190613592565b6130f3919061355d565b6130fd9190613592565b613107908661355d565b6131119190613592565b6113149190613604565b6000670de0b6b3a76400008381613132828061355d565b61313c9190613592565b613146919061355d565b6131509190613592565b670de0b6b3a764000080613164858061355d565b61316e9190613592565b61317986600361355d565b613107919061355d565b80356001600160a01b038116811461319a57600080fd5b919050565b6000806000806000608086880312156131b757600080fd5b85359450602086013593506131ce60408701613183565b9250606086013567ffffffffffffffff808211156131eb57600080fd5b818801915088601f8301126131ff57600080fd5b81358181111561320e57600080fd5b89602082850101111561322057600080fd5b9699959850939650602001949392505050565b60005b8381101561324e578181015183820152602001613236565b8381111561325d576000848401525b50505050565b6020815260008251806020840152613282816040850160208701613233565b601f01601f19169190910160400192915050565b600080604083850312156132a957600080fd5b6132b283613183565b946020939093013593505050565b600080600080608085870312156132d657600080fd5b6132df85613183565b966020860135965060408601359560600135945092505050565b6020808252825182820181905260009190848201906040850190845b8181101561333157835183529284019291840191600101613315565b50909695505050505050565b60006020828403121561334f57600080fd5b61131482613183565b60008060006060848603121561336d57600080fd5b61337684613183565b925061338460208501613183565b9150604084013590509250925092565b6000602082840312156133a657600080fd5b5035919050565b6000806000606084860312156133c257600080fd5b6133cb84613183565b95602085013595506040909401359392505050565b600080600080600080600060e0888a0312156133fb57600080fd5b61340488613183565b965061341260208901613183565b95506040880135945060608801359350608088013560ff8116811461343657600080fd5b9699959850939692959460a0840135945060c09093013592915050565b6000806040838503121561346657600080fd5b61346f83613183565b915061347d60208401613183565b90509250929050565b6000806040838503121561349957600080fd5b8235915061347d60208401613183565b6000602082840312156134bb57600080fd5b8151801515811461131457600080fd5b60018060a01b038616815284602082015283604082015260806060820152816080820152818360a0830137600081830160a090810191909152601f909201601f19160101949350505050565b60006020828403121561352957600080fd5b5051919050565b634e487b7160e01b600052601160045260246000fd5b60008282101561355857613558613530565b500390565b600081600019048311821515161561357757613577613530565b500290565b634e487b7160e01b600052601260045260246000fd5b6000826135af57634e487b7160e01b600052601260045260246000fd5b500490565b600181811c908216806135c857607f821691505b6020821081036135e857634e487b7160e01b600052602260045260246000fd5b50919050565b634e487b7160e01b600052604160045260246000fd5b6000821982111561361757613617613530565b500190565b634e487b7160e01b600052603260045260246000fd5b60006001820161364457613644613530565b5060010190565b600080835481600182811c91508083168061366757607f831692505b6020808410820361368657634e487b7160e01b86526022600452602486fd5b81801561369a57600181146136ab576136d8565b60ff198616895284890196506136d8565b60008a81526020902060005b868110156136d05781548b8201529085019083016136b7565b505084890196505b509498975050505050505050565b600082516136f8818460208701613233565b919091019291505056fea2646970667358221220a32356aa1e88a739870152bb23dc1053c9aedf924050db833d7dc037603d271d64736f6c634300080d003360e060405234801561001057600080fd5b5060405161037038038061037083398101604081905261002f91610066565b336080526001600160a01b0391821660a0521660c052610099565b80516001600160a01b038116811461006157600080fd5b919050565b6000806040838503121561007957600080fd5b6100828361004a565b91506100906020840161004a565b90509250929050565b60805160a05160c0516102ab6100c5600039600060b601526000608501526000605001526102ab6000f3fe608060405234801561001057600080fd5b506004361061002b5760003560e01c8063533cf5ce14610030575b600080fd5b61004361003e3660046101d0565b610045565b005b336001600160a01b037f0000000000000000000000000000000000000000000000000000000000000000161461007a57600080fd5b81156100ab576100ab7f000000000000000000000000000000000000000000000000000000000000000084846100e1565b80156100dc576100dc7f000000000000000000000000000000000000000000000000000000000000000084836100e1565b505050565b6000836001600160a01b03163b116100f857600080fd5b604080516001600160a01b038481166024830152604480830185905283518084039091018152606490920183526020820180516001600160e01b031663a9059cbb60e01b17905291516000928392908716916101549190610211565b6000604051808303816000865af19150503d8060008114610191576040519150601f19603f3d011682016040523d82523d6000602084013e610196565b606091505b50915091508180156101c05750805115806101c05750808060200190518101906101c0919061024c565b6101c957600080fd5b5050505050565b6000806000606084860312156101e557600080fd5b83356001600160a01b03811681146101fc57600080fd5b95602085013595506040909401359392505050565b6000825160005b818110156102325760208186018101518583015201610218565b81811115610241576000828501525b509190910192915050565b60006020828403121561025e57600080fd5b8151801515811461026e57600080fd5b939250505056fea26469706673582212208b46ae4ec9d811968d91d46abd65465ee9d5fc35c48b19802a74b563cd2436e164736f6c634300080d0033a2646970667358221220d04e2b5bf39b8f0fbf66aa9243f4444a96883c4feaaed875e63fc777b3e6403a64736f6c634300080d0033",
  "devdoc": {
    "kind": "dev",
    "methods": {},
    "version": 1
  },
  "userdoc": {
    "kind": "user",
    "methods": {},
    "version": 1
  },
  "storageLayout": {
    "storage": [
      {
        "astId": 21403,
        "contract": "contracts/factories/PairFactory.sol:PairFactory",
        "label": "isPaused",
        "offset": 0,
        "slot": "0",
        "type": "t_bool"
      },
      {
        "astId": 21405,
        "contract": "contracts/factories/PairFactory.sol:PairFactory",
        "label": "pauser",
        "offset": 1,
        "slot": "0",
        "type": "t_address"
      },
      {
        "astId": 21407,
        "contract": "contracts/factories/PairFactory.sol:PairFactory",
        "label": "pendingPauser",
        "offset": 0,
        "slot": "1",
        "type": "t_address"
      },
      {
        "astId": 21409,
        "contract": "contracts/factories/PairFactory.sol:PairFactory",
        "label": "stableFee",
        "offset": 0,
        "slot": "2",
        "type": "t_uint256"
      },
      {
        "astId": 21411,
        "contract": "contracts/factories/PairFactory.sol:PairFactory",
        "label": "volatileFee",
        "offset": 0,
        "slot": "3",
        "type": "t_uint256"
      },
      {
        "astId": 21416,
        "contract": "contracts/factories/PairFactory.sol:PairFactory",
        "label": "feeManager",
        "offset": 0,
        "slot": "4",
        "type": "t_address"
      },
      {
        "astId": 21418,
        "contract": "contracts/factories/PairFactory.sol:PairFactory",
        "label": "pendingFeeManager",
        "offset": 0,
        "slot": "5",
        "type": "t_address"
      },
      {
        "astId": 21420,
        "contract": "contracts/factories/PairFactory.sol:PairFactory",
        "label": "voter",
        "offset": 0,
        "slot": "6",
        "type": "t_address"
      },
      {
        "astId": 21422,
        "contract": "contracts/factories/PairFactory.sol:PairFactory",
        "label": "team",
        "offset": 0,
        "slot": "7",
        "type": "t_address"
      },
      {
        "astId": 21424,
        "contract": "contracts/factories/PairFactory.sol:PairFactory",
        "label": "pendingTank",
        "offset": 0,
        "slot": "8",
        "type": "t_address"
      },
      {
        "astId": 21426,
        "contract": "contracts/factories/PairFactory.sol:PairFactory",
        "label": "tank",
        "offset": 0,
        "slot": "9",
        "type": "t_address"
      },
      {
        "astId": 21428,
        "contract": "contracts/factories/PairFactory.sol:PairFactory",
        "label": "deployer",
        "offset": 0,
        "slot": "10",
        "type": "t_address"
      },
      {
        "astId": 21436,
        "contract": "contracts/factories/PairFactory.sol:PairFactory",
        "label": "getPair",
        "offset": 0,
        "slot": "11",
        "type": "t_mapping(t_address,t_mapping(t_address,t_mapping(t_bool,t_address)))"
      },
      {
        "astId": 21439,
        "contract": "contracts/factories/PairFactory.sol:PairFactory",
        "label": "allPairs",
        "offset": 0,
        "slot": "12",
        "type": "t_array(t_address)dyn_storage"
      },
      {
        "astId": 21443,
        "contract": "contracts/factories/PairFactory.sol:PairFactory",
        "label": "isPair",
        "offset": 0,
        "slot": "13",
        "type": "t_mapping(t_address,t_bool)"
      },
      {
        "astId": 21445,
        "contract": "contracts/factories/PairFactory.sol:PairFactory",
        "label": "_temp0",
        "offset": 0,
        "slot": "14",
        "type": "t_address"
      },
      {
        "astId": 21447,
        "contract": "contracts/factories/PairFactory.sol:PairFactory",
        "label": "_temp1",
        "offset": 0,
        "slot": "15",
        "type": "t_address"
      },
      {
        "astId": 21449,
        "contract": "contracts/factories/PairFactory.sol:PairFactory",
        "label": "_temp",
        "offset": 20,
        "slot": "15",
        "type": "t_bool"
      }
    ],
    "types": {
      "t_address": {
        "encoding": "inplace",
        "label": "address",
        "numberOfBytes": "20"
      },
      "t_array(t_address)dyn_storage": {
        "base": "t_address",
        "encoding": "dynamic_array",
        "label": "address[]",
        "numberOfBytes": "32"
      },
      "t_bool": {
        "encoding": "inplace",
        "label": "bool",
        "numberOfBytes": "1"
      },
      "t_mapping(t_address,t_bool)": {
        "encoding": "mapping",
        "key": "t_address",
        "label": "mapping(address => bool)",
        "numberOfBytes": "32",
        "value": "t_bool"
      },
      "t_mapping(t_address,t_mapping(t_address,t_mapping(t_bool,t_address)))": {
        "encoding": "mapping",
        "key": "t_address",
        "label": "mapping(address => mapping(address => mapping(bool => address)))",
        "numberOfBytes": "32",
        "value": "t_mapping(t_address,t_mapping(t_bool,t_address))"
      },
      "t_mapping(t_address,t_mapping(t_bool,t_address))": {
        "encoding": "mapping",
        "key": "t_address",
        "label": "mapping(address => mapping(bool => address))",
        "numberOfBytes": "32",
        "value": "t_mapping(t_bool,t_address)"
      },
      "t_mapping(t_bool,t_address)": {
        "encoding": "mapping",
        "key": "t_bool",
        "label": "mapping(bool => address)",
        "numberOfBytes": "32",
        "value": "t_address"
      },
      "t_uint256": {
        "encoding": "inplace",
        "label": "uint256",
        "numberOfBytes": "32"
      }
    }
  }
}